{
  "_format": "hh-sol-artifact-1",
  "contractName": "Transactions",
  "sourceName": "contracts/Transactions.sol",
  "abi": [
    {
      "anonymous": false,
      "inputs": [
        {
          "indexed": false,
          "internalType": "address",
          "name": "sender",
          "type": "address"
        },
        {
          "indexed": false,
          "internalType": "address",
          "name": "receiverAddress",
          "type": "address"
        },
        {
          "indexed": false,
          "internalType": "uint256",
          "name": "parsedAmount",
          "type": "uint256"
        }
      ],
      "name": "Transfer",
      "type": "event"
    },
    {
      "inputs": [
        {
          "internalType": "string",
          "name": "powerSource",
          "type": "string"
        },
        {
          "internalType": "string",
          "name": "amountOfPower",
          "type": "string"
        },
        {
          "internalType": "string",
          "name": "pricePerKW",
          "type": "string"
        },
        {
          "internalType": "string",
          "name": "duration",
          "type": "string"
        },
        {
          "internalType": "string",
          "name": "timeToStart",
          "type": "string"
        }
      ],
      "name": "addToAvailableOptions",
      "outputs": [],
      "stateMutability": "nonpayable",
      "type": "function"
    },
    {
      "inputs": [
        {
          "internalType": "address",
          "name": "receiverAddress",
          "type": "address"
        },
        {
          "internalType": "uint256",
          "name": "amountOfPower",
          "type": "uint256"
        },
        {
          "internalType": "string",
          "name": "pricePerKW",
          "type": "string"
        },
        {
          "internalType": "uint256",
          "name": "parsedAmount",
          "type": "uint256"
        }
      ],
      "name": "addToBlockchain",
      "outputs": [],
      "stateMutability": "nonpayable",
      "type": "function"
    },
    {
      "inputs": [
        {
          "internalType": "uint256",
          "name": "",
          "type": "uint256"
        }
      ],
      "name": "availableOptions",
      "outputs": [
        {
          "internalType": "uint256",
          "name": "id",
          "type": "uint256"
        },
        {
          "internalType": "address",
          "name": "sender",
          "type": "address"
        },
        {
          "internalType": "string",
          "name": "powerSource",
          "type": "string"
        },
        {
          "internalType": "string",
          "name": "amountOfPower",
          "type": "string"
        },
        {
          "internalType": "string",
          "name": "pricePerKW",
          "type": "string"
        },
        {
          "internalType": "string",
          "name": "duration",
          "type": "string"
        },
        {
          "internalType": "string",
          "name": "timeToStart",
          "type": "string"
        }
      ],
      "stateMutability": "view",
      "type": "function"
    },
    {
      "inputs": [],
      "name": "getAllTransactions",
      "outputs": [
        {
          "components": [
            {
              "internalType": "address",
              "name": "sender",
              "type": "address"
            },
            {
              "internalType": "address",
              "name": "receiver",
              "type": "address"
            },
            {
              "internalType": "uint256",
              "name": "amountOfPower",
              "type": "uint256"
            },
            {
              "internalType": "string",
              "name": "pricePerKW",
              "type": "string"
            },
            {
              "internalType": "uint256",
              "name": "parsedAmount",
              "type": "uint256"
            }
          ],
          "internalType": "struct Transactions.TransferStruct[]",
          "name": "",
          "type": "tuple[]"
        }
      ],
      "stateMutability": "view",
      "type": "function"
    },
    {
      "inputs": [],
      "name": "getAvailableOptions",
      "outputs": [
        {
          "components": [
            {
              "internalType": "uint256",
              "name": "id",
              "type": "uint256"
            },
            {
              "internalType": "address",
              "name": "sender",
              "type": "address"
            },
            {
              "internalType": "string",
              "name": "powerSource",
              "type": "string"
            },
            {
              "internalType": "string",
              "name": "amountOfPower",
              "type": "string"
            },
            {
              "internalType": "string",
              "name": "pricePerKW",
              "type": "string"
            },
            {
              "internalType": "string",
              "name": "duration",
              "type": "string"
            },
            {
              "internalType": "string",
              "name": "timeToStart",
              "type": "string"
            }
          ],
          "internalType": "struct Transactions.AvailableOptionStruct[]",
          "name": "",
          "type": "tuple[]"
        }
      ],
      "stateMutability": "view",
      "type": "function"
    },
    {
      "inputs": [],
      "name": "getId",
      "outputs": [
        {
          "internalType": "uint256",
          "name": "",
          "type": "uint256"
        }
      ],
      "stateMutability": "nonpayable",
      "type": "function"
    },
    {
      "inputs": [],
      "name": "getTransactionCount",
      "outputs": [
        {
          "internalType": "uint256",
          "name": "",
          "type": "uint256"
        }
      ],
      "stateMutability": "view",
      "type": "function"
    },
    {
      "inputs": [],
      "name": "id",
      "outputs": [
        {
          "internalType": "uint256",
          "name": "",
          "type": "uint256"
        }
      ],
      "stateMutability": "view",
      "type": "function"
    }
  ],
  "bytecode": "0x6080604052600160005534801561001557600080fd5b50611774806100256000396000f3fe608060405234801561001057600080fd5b50600436106100885760003560e01c80635d1ca6311161005b5780635d1ca63114610103578063644fc12d14610121578063af640d0f1461013d578063c36fff2d1461015b57610088565b806312735e191461008d57806327506f53146100ab5780632e7700f0146100c9578063486aa1f1146100e7575b600080fd5b610095610191565b6040516100a29190611038565b60405180910390f35b6100b361052a565b6040516100c09190611192565b60405180910390f35b6100d16106db565b6040516100de91906111c3565b60405180910390f35b61010160048036038101906100fc919061137f565b6106e5565b005b61010b61087f565b60405161011891906111c3565b60405180910390f35b61013b60048036038101906101369190611402565b61089e565b005b610145610a08565b60405161015291906111c3565b60405180910390f35b61017560048036038101906101709190611509565b610a0e565b604051610188979695949392919061158f565b60405180910390f35b60606002805480602002602001604051908101604052809291908181526020016000905b8282101561052157838290600052602060002090600702016040518060e0016040529081600082015481526020016001820160009054906101000a900473ffffffffffffffffffffffffffffffffffffffff1673ffffffffffffffffffffffffffffffffffffffff1673ffffffffffffffffffffffffffffffffffffffff16815260200160028201805461024890611650565b80601f016020809104026020016040519081016040528092919081815260200182805461027490611650565b80156102c15780601f10610296576101008083540402835291602001916102c1565b820191906000526020600020905b8154815290600101906020018083116102a457829003601f168201915b505050505081526020016003820180546102da90611650565b80601f016020809104026020016040519081016040528092919081815260200182805461030690611650565b80156103535780601f1061032857610100808354040283529160200191610353565b820191906000526020600020905b81548152906001019060200180831161033657829003601f168201915b5050505050815260200160048201805461036c90611650565b80601f016020809104026020016040519081016040528092919081815260200182805461039890611650565b80156103e55780601f106103ba576101008083540402835291602001916103e5565b820191906000526020600020905b8154815290600101906020018083116103c857829003601f168201915b505050505081526020016005820180546103fe90611650565b80601f016020809104026020016040519081016040528092919081815260200182805461042a90611650565b80156104775780601f1061044c57610100808354040283529160200191610477565b820191906000526020600020905b81548152906001019060200180831161045a57829003601f168201915b5050505050815260200160068201805461049090611650565b80601f01602080910402602001604051908101604052809291908181526020018280546104bc90611650565b80156105095780601f106104de57610100808354040283529160200191610509565b820191906000526020600020905b8154815290600101906020018083116104ec57829003601f168201915b505050505081525050815260200190600101906101b5565b50505050905090565b60606004805480602002602001604051908101604052809291908181526020016000905b828210156106d257838290600052602060002090600502016040518060a00160405290816000820160009054906101000a900473ffffffffffffffffffffffffffffffffffffffff1673ffffffffffffffffffffffffffffffffffffffff1673ffffffffffffffffffffffffffffffffffffffff1681526020016001820160009054906101000a900473ffffffffffffffffffffffffffffffffffffffff1673ffffffffffffffffffffffffffffffffffffffff1673ffffffffffffffffffffffffffffffffffffffff1681526020016002820154815260200160038201805461063790611650565b80601f016020809104026020016040519081016040528092919081815260200182805461066390611650565b80156106b05780601f10610685576101008083540402835291602001916106b0565b820191906000526020600020905b81548152906001019060200180831161069357829003601f168201915b505050505081526020016004820154815250508152602001906001019061054e565b50505050905090565b6000600354905090565b6001600360008282546106f891906116b1565b9250508190555060046040518060a001604052803373ffffffffffffffffffffffffffffffffffffffff1681526020018673ffffffffffffffffffffffffffffffffffffffff16815260200185815260200184815260200183815250908060018154018082558091505060019003906000526020600020906005020160009091909190915060008201518160000160006101000a81548173ffffffffffffffffffffffffffffffffffffffff021916908373ffffffffffffffffffffffffffffffffffffffff16021790555060208201518160010160006101000a81548173ffffffffffffffffffffffffffffffffffffffff021916908373ffffffffffffffffffffffffffffffffffffffff160217905550604082015181600201556060820151816003019080519060200190610831929190610d28565b506080820151816004015550507fddf252ad1be2c89b69c2b068fc378daa952ba7f163c4a11628f55a4df523b3ef33858360405161087193929190611707565b60405180910390a150505050565b6000600160008082825461089391906116b1565b925050819055905090565b6108a661087f565b5060026040518060e0016040528060005481526020013373ffffffffffffffffffffffffffffffffffffffff1681526020018781526020018681526020018581526020018481526020018381525090806001815401808255809150506001900390600052602060002090600702016000909190919091506000820151816000015560208201518160010160006101000a81548173ffffffffffffffffffffffffffffffffffffffff021916908373ffffffffffffffffffffffffffffffffffffffff160217905550604082015181600201908051906020019061098a929190610d28565b5060608201518160030190805190602001906109a7929190610d28565b5060808201518160040190805190602001906109c4929190610d28565b5060a08201518160050190805190602001906109e1929190610d28565b5060c08201518160060190805190602001906109fe929190610d28565b5050505050505050565b60005481565b60028181548110610a1e57600080fd5b90600052602060002090600702016000915090508060000154908060010160009054906101000a900473ffffffffffffffffffffffffffffffffffffffff1690806002018054610a6d90611650565b80601f0160208091040260200160405190810160405280929190818152602001828054610a9990611650565b8015610ae65780601f10610abb57610100808354040283529160200191610ae6565b820191906000526020600020905b815481529060010190602001808311610ac957829003601f168201915b505050505090806003018054610afb90611650565b80601f0160208091040260200160405190810160405280929190818152602001828054610b2790611650565b8015610b745780601f10610b4957610100808354040283529160200191610b74565b820191906000526020600020905b815481529060010190602001808311610b5757829003601f168201915b505050505090806004018054610b8990611650565b80601f0160208091040260200160405190810160405280929190818152602001828054610bb590611650565b8015610c025780601f10610bd757610100808354040283529160200191610c02565b820191906000526020600020905b815481529060010190602001808311610be557829003601f168201915b505050505090806005018054610c1790611650565b80601f0160208091040260200160405190810160405280929190818152602001828054610c4390611650565b8015610c905780601f10610c6557610100808354040283529160200191610c90565b820191906000526020600020905b815481529060010190602001808311610c7357829003601f168201915b505050505090806006018054610ca590611650565b80601f0160208091040260200160405190810160405280929190818152602001828054610cd190611650565b8015610d1e5780601f10610cf357610100808354040283529160200191610d1e565b820191906000526020600020905b815481529060010190602001808311610d0157829003601f168201915b5050505050905087565b828054610d3490611650565b90600052602060002090601f016020900481019282610d565760008555610d9d565b82601f10610d6f57805160ff1916838001178555610d9d565b82800160010185558215610d9d579182015b82811115610d9c578251825591602001919060010190610d81565b5b509050610daa9190610dae565b5090565b5b80821115610dc7576000816000905550600101610daf565b5090565b600081519050919050565b600082825260208201905092915050565b6000819050602082019050919050565b6000819050919050565b610e0a81610df7565b82525050565b600073ffffffffffffffffffffffffffffffffffffffff82169050919050565b6000610e3b82610e10565b9050919050565b610e4b81610e30565b82525050565b600081519050919050565b600082825260208201905092915050565b60005b83811015610e8b578082015181840152602081019050610e70565b83811115610e9a576000848401525b50505050565b6000601f19601f8301169050919050565b6000610ebc82610e51565b610ec68185610e5c565b9350610ed6818560208601610e6d565b610edf81610ea0565b840191505092915050565b600060e083016000830151610f026000860182610e01565b506020830151610f156020860182610e42565b5060408301518482036040860152610f2d8282610eb1565b91505060608301518482036060860152610f478282610eb1565b91505060808301518482036080860152610f618282610eb1565b91505060a083015184820360a0860152610f7b8282610eb1565b91505060c083015184820360c0860152610f958282610eb1565b9150508091505092915050565b6000610fae8383610eea565b905092915050565b6000602082019050919050565b6000610fce82610dcb565b610fd88185610dd6565b935083602082028501610fea85610de7565b8060005b8581101561102657848403895281516110078582610fa2565b945061101283610fb6565b925060208a01995050600181019050610fee565b50829750879550505050505092915050565b600060208201905081810360008301526110528184610fc3565b905092915050565b600081519050919050565b600082825260208201905092915050565b6000819050602082019050919050565b600060a08301600083015161109e6000860182610e42565b5060208301516110b16020860182610e42565b5060408301516110c46040860182610e01565b50606083015184820360608601526110dc8282610eb1565b91505060808301516110f16080860182610e01565b508091505092915050565b60006111088383611086565b905092915050565b6000602082019050919050565b60006111288261105a565b6111328185611065565b93508360208202850161114485611076565b8060005b85811015611180578484038952815161116185826110fc565b945061116c83611110565b925060208a01995050600181019050611148565b50829750879550505050505092915050565b600060208201905081810360008301526111ac818461111d565b905092915050565b6111bd81610df7565b82525050565b60006020820190506111d860008301846111b4565b92915050565b6000604051905090565b600080fd5b600080fd5b6111fb81610e30565b811461120657600080fd5b50565b600081359050611218816111f2565b92915050565b61122781610df7565b811461123257600080fd5b50565b6000813590506112448161121e565b92915050565b600080fd5b600080fd5b7f4e487b7100000000000000000000000000000000000000000000000000000000600052604160045260246000fd5b61128c82610ea0565b810181811067ffffffffffffffff821117156112ab576112aa611254565b5b80604052505050565b60006112be6111de565b90506112ca8282611283565b919050565b600067ffffffffffffffff8211156112ea576112e9611254565b5b6112f382610ea0565b9050602081019050919050565b82818337600083830152505050565b600061132261131d846112cf565b6112b4565b90508281526020810184848401111561133e5761133d61124f565b5b611349848285611300565b509392505050565b600082601f8301126113665761136561124a565b5b813561137684826020860161130f565b91505092915050565b60008060008060808587031215611399576113986111e8565b5b60006113a787828801611209565b94505060206113b887828801611235565b935050604085013567ffffffffffffffff8111156113d9576113d86111ed565b5b6113e587828801611351565b92505060606113f687828801611235565b91505092959194509250565b600080600080600060a0868803121561141e5761141d6111e8565b5b600086013567ffffffffffffffff81111561143c5761143b6111ed565b5b61144888828901611351565b955050602086013567ffffffffffffffff811115611469576114686111ed565b5b61147588828901611351565b945050604086013567ffffffffffffffff811115611496576114956111ed565b5b6114a288828901611351565b935050606086013567ffffffffffffffff8111156114c3576114c26111ed565b5b6114cf88828901611351565b925050608086013567ffffffffffffffff8111156114f0576114ef6111ed565b5b6114fc88828901611351565b9150509295509295909350565b60006020828403121561151f5761151e6111e8565b5b600061152d84828501611235565b91505092915050565b61153f81610e30565b82525050565b600082825260208201905092915050565b600061156182610e51565b61156b8185611545565b935061157b818560208601610e6d565b61158481610ea0565b840191505092915050565b600060e0820190506115a4600083018a6111b4565b6115b16020830189611536565b81810360408301526115c38188611556565b905081810360608301526115d78187611556565b905081810360808301526115eb8186611556565b905081810360a08301526115ff8185611556565b905081810360c08301526116138184611556565b905098975050505050505050565b7f4e487b7100000000000000000000000000000000000000000000000000000000600052602260045260246000fd5b6000600282049050600182168061166857607f821691505b6020821081141561167c5761167b611621565b5b50919050565b7f4e487b7100000000000000000000000000000000000000000000000000000000600052601160045260246000fd5b60006116bc82610df7565b91506116c783610df7565b9250827fffffffffffffffffffffffffffffffffffffffffffffffffffffffffffffffff038211156116fc576116fb611682565b5b828201905092915050565b600060608201905061171c6000830186611536565b6117296020830185611536565b61173660408301846111b4565b94935050505056fea2646970667358221220329d0a867e3d282859b9d8ec83b2317f046336e93a58fc0a374cddff2708d16f64736f6c63430008090033",
  "linkReferences": {},
  "deployedLinkReferences": {}
}