{
  "_format": "hh-sol-artifact-1",
  "contractName": "Transactions",
  "sourceName": "contracts/Transactions.sol",
  "abi": [
    {
      "anonymous": false,
      "inputs": [
        {
          "indexed": false,
          "internalType": "address",
          "name": "sender",
          "type": "address"
        },
        {
          "indexed": false,
          "internalType": "address",
          "name": "receiverAddress",
          "type": "address"
        },
        {
          "indexed": false,
          "internalType": "uint256",
          "name": "amountOfPower",
          "type": "uint256"
        },
        {
          "indexed": false,
          "internalType": "uint256",
          "name": "pricePerKW",
          "type": "uint256"
        },
        {
          "indexed": false,
          "internalType": "string",
          "name": "duration",
          "type": "string"
        },
        {
          "indexed": false,
          "internalType": "string",
          "name": "timeToStart",
          "type": "string"
        }
      ],
      "name": "Transfer",
      "type": "event"
    },
    {
      "inputs": [
        {
          "internalType": "string",
          "name": "powerSource",
          "type": "string"
        },
        {
          "internalType": "string",
          "name": "amountOfPower",
          "type": "string"
        },
        {
          "internalType": "string",
          "name": "pricePerKW",
          "type": "string"
        },
        {
          "internalType": "string",
          "name": "duration",
          "type": "string"
        },
        {
          "internalType": "string",
          "name": "timeToStart",
          "type": "string"
        }
      ],
      "name": "addToAvailableOptions",
      "outputs": [],
      "stateMutability": "nonpayable",
      "type": "function"
    },
    {
      "inputs": [
        {
          "internalType": "address",
          "name": "receiverAddress",
          "type": "address"
        },
        {
          "internalType": "uint256",
          "name": "amountOfPower",
          "type": "uint256"
        },
        {
          "internalType": "uint256",
          "name": "pricePerKW",
          "type": "uint256"
        },
        {
          "internalType": "string",
          "name": "duration",
          "type": "string"
        },
        {
          "internalType": "string",
          "name": "timeToStart",
          "type": "string"
        }
      ],
      "name": "addToBlockchain",
      "outputs": [],
      "stateMutability": "nonpayable",
      "type": "function"
    },
    {
      "inputs": [
        {
          "internalType": "address",
          "name": "receiverAddress",
          "type": "address"
        },
        {
          "internalType": "uint256",
          "name": "amountOfPower",
          "type": "uint256"
        },
        {
          "internalType": "uint256",
          "name": "pricePerKW",
          "type": "uint256"
        },
        {
          "internalType": "string",
          "name": "duration",
          "type": "string"
        },
        {
          "internalType": "string",
          "name": "timeToStart",
          "type": "string"
        }
      ],
      "name": "approveTransaction",
      "outputs": [],
      "stateMutability": "nonpayable",
      "type": "function"
    },
    {
      "inputs": [
        {
          "internalType": "uint256",
          "name": "",
          "type": "uint256"
        }
      ],
      "name": "availableOptions",
      "outputs": [
        {
          "internalType": "address",
          "name": "sender",
          "type": "address"
        },
        {
          "internalType": "string",
          "name": "powerSource",
          "type": "string"
        },
        {
          "internalType": "string",
          "name": "amountOfPower",
          "type": "string"
        },
        {
          "internalType": "string",
          "name": "pricePerKW",
          "type": "string"
        },
        {
          "internalType": "string",
          "name": "duration",
          "type": "string"
        },
        {
          "internalType": "string",
          "name": "timeToStart",
          "type": "string"
        }
      ],
      "stateMutability": "view",
      "type": "function"
    },
    {
      "inputs": [],
      "name": "getAllTransactions",
      "outputs": [
        {
          "components": [
            {
              "internalType": "address",
              "name": "sender",
              "type": "address"
            },
            {
              "internalType": "address",
              "name": "receiver",
              "type": "address"
            },
            {
              "internalType": "uint256",
              "name": "amountOfPower",
              "type": "uint256"
            },
            {
              "internalType": "uint256",
              "name": "pricePerKW",
              "type": "uint256"
            },
            {
              "internalType": "string",
              "name": "duration",
              "type": "string"
            },
            {
              "internalType": "string",
              "name": "timeToStart",
              "type": "string"
            }
          ],
          "internalType": "struct Transactions.TransferStruct[]",
          "name": "",
          "type": "tuple[]"
        }
      ],
      "stateMutability": "view",
      "type": "function"
    },
    {
      "inputs": [],
      "name": "getAvailableOptions",
      "outputs": [
        {
          "components": [
            {
              "internalType": "address",
              "name": "sender",
              "type": "address"
            },
            {
              "internalType": "string",
              "name": "powerSource",
              "type": "string"
            },
            {
              "internalType": "string",
              "name": "amountOfPower",
              "type": "string"
            },
            {
              "internalType": "string",
              "name": "pricePerKW",
              "type": "string"
            },
            {
              "internalType": "string",
              "name": "duration",
              "type": "string"
            },
            {
              "internalType": "string",
              "name": "timeToStart",
              "type": "string"
            }
          ],
          "internalType": "struct Transactions.AvailableOptionStruct[]",
          "name": "",
          "type": "tuple[]"
        }
      ],
      "stateMutability": "view",
      "type": "function"
    },
    {
      "inputs": [],
      "name": "getTransactionCount",
      "outputs": [
        {
          "internalType": "uint256",
          "name": "",
          "type": "uint256"
        }
      ],
      "stateMutability": "view",
      "type": "function"
    }
  ],
  "bytecode": "0x608060405234801561001057600080fd5b50611880806100206000396000f3fe608060405234801561001057600080fd5b506004361061007d5760003560e01c8063644fc12d1161005b578063644fc12d146100dc5780636e00da01146100f8578063b8281beb14610114578063c36fff2d146101305761007d565b806312735e191461008257806327506f53146100a05780632e7700f0146100be575b600080fd5b61008a610165565b604051610097919061105d565b60405180910390f35b6100a86104f4565b6040516100b591906111ea565b60405180910390f35b6100c6610737565b6040516100d3919061121b565b60405180910390f35b6100f660048036038101906100f1919061137f565b610741565b005b610112600480360381019061010d91906114de565b610890565b005b61012e600480360381019061012991906114de565b6108e3565b005b61014a60048036038101906101459190611591565b610a65565b60405161015c96959493929190611617565b60405180910390f35b60606000805480602002602001604051908101604052809291908181526020016000905b828210156104eb57838290600052602060002090600602016040518060c00160405290816000820160009054906101000a900473ffffffffffffffffffffffffffffffffffffffff1673ffffffffffffffffffffffffffffffffffffffff1673ffffffffffffffffffffffffffffffffffffffff168152602001600182018054610212906116ca565b80601f016020809104026020016040519081016040528092919081815260200182805461023e906116ca565b801561028b5780601f106102605761010080835404028352916020019161028b565b820191906000526020600020905b81548152906001019060200180831161026e57829003601f168201915b505050505081526020016002820180546102a4906116ca565b80601f01602080910402602001604051908101604052809291908181526020018280546102d0906116ca565b801561031d5780601f106102f25761010080835404028352916020019161031d565b820191906000526020600020905b81548152906001019060200180831161030057829003601f168201915b50505050508152602001600382018054610336906116ca565b80601f0160208091040260200160405190810160405280929190818152602001828054610362906116ca565b80156103af5780601f10610384576101008083540402835291602001916103af565b820191906000526020600020905b81548152906001019060200180831161039257829003601f168201915b505050505081526020016004820180546103c8906116ca565b80601f01602080910402602001604051908101604052809291908181526020018280546103f4906116ca565b80156104415780601f1061041657610100808354040283529160200191610441565b820191906000526020600020905b81548152906001019060200180831161042457829003601f168201915b5050505050815260200160058201805461045a906116ca565b80601f0160208091040260200160405190810160405280929190818152602001828054610486906116ca565b80156104d35780601f106104a8576101008083540402835291602001916104d3565b820191906000526020600020905b8154815290600101906020018083116104b657829003601f168201915b50505050508152505081526020019060010190610189565b50505050905090565b60606002805480602002602001604051908101604052809291908181526020016000905b8282101561072e57838290600052602060002090600602016040518060c00160405290816000820160009054906101000a900473ffffffffffffffffffffffffffffffffffffffff1673ffffffffffffffffffffffffffffffffffffffff1673ffffffffffffffffffffffffffffffffffffffff1681526020016001820160009054906101000a900473ffffffffffffffffffffffffffffffffffffffff1673ffffffffffffffffffffffffffffffffffffffff1673ffffffffffffffffffffffffffffffffffffffff168152602001600282015481526020016003820154815260200160048201805461060b906116ca565b80601f0160208091040260200160405190810160405280929190818152602001828054610637906116ca565b80156106845780601f1061065957610100808354040283529160200191610684565b820191906000526020600020905b81548152906001019060200180831161066757829003601f168201915b5050505050815260200160058201805461069d906116ca565b80601f01602080910402602001604051908101604052809291908181526020018280546106c9906116ca565b80156107165780601f106106eb57610100808354040283529160200191610716565b820191906000526020600020905b8154815290600101906020018083116106f957829003601f168201915b50505050508152505081526020019060010190610518565b50505050905090565b6000600154905090565b60006040518060c001604052803373ffffffffffffffffffffffffffffffffffffffff16815260200187815260200186815260200185815260200184815260200183815250908060018154018082558091505060019003906000526020600020906006020160009091909190915060008201518160000160006101000a81548173ffffffffffffffffffffffffffffffffffffffff021916908373ffffffffffffffffffffffffffffffffffffffff1602179055506020820151816001019080519060200190610812929190610d79565b50604082015181600201908051906020019061082f929190610d79565b50606082015181600301908051906020019061084c929190610d79565b506080820151816004019080519060200190610869929190610d79565b5060a0820151816005019080519060200190610886929190610d79565b5050505050505050565b7f1e92c3b94e87106bb5e1f3493c1debe5003450085b72f643a2839c3e4dd25eb6338685876108bf919061172b565b8686866040516108d496959493929190611785565b60405180910390a15050505050565b60018060008282546108f591906117f4565b9250508190555060026040518060c001604052803373ffffffffffffffffffffffffffffffffffffffff1681526020018773ffffffffffffffffffffffffffffffffffffffff16815260200186815260200185815260200184815260200183815250908060018154018082558091505060019003906000526020600020906006020160009091909190915060008201518160000160006101000a81548173ffffffffffffffffffffffffffffffffffffffff021916908373ffffffffffffffffffffffffffffffffffffffff16021790555060208201518160010160006101000a81548173ffffffffffffffffffffffffffffffffffffffff021916908373ffffffffffffffffffffffffffffffffffffffff16021790555060408201518160020155606082015181600301556080820151816004019080519060200190610a3e929190610d79565b5060a0820151816005019080519060200190610a5b929190610d79565b5050505050505050565b60008181548110610a7557600080fd5b90600052602060002090600602016000915090508060000160009054906101000a900473ffffffffffffffffffffffffffffffffffffffff1690806001018054610abe906116ca565b80601f0160208091040260200160405190810160405280929190818152602001828054610aea906116ca565b8015610b375780601f10610b0c57610100808354040283529160200191610b37565b820191906000526020600020905b815481529060010190602001808311610b1a57829003601f168201915b505050505090806002018054610b4c906116ca565b80601f0160208091040260200160405190810160405280929190818152602001828054610b78906116ca565b8015610bc55780601f10610b9a57610100808354040283529160200191610bc5565b820191906000526020600020905b815481529060010190602001808311610ba857829003601f168201915b505050505090806003018054610bda906116ca565b80601f0160208091040260200160405190810160405280929190818152602001828054610c06906116ca565b8015610c535780601f10610c2857610100808354040283529160200191610c53565b820191906000526020600020905b815481529060010190602001808311610c3657829003601f168201915b505050505090806004018054610c68906116ca565b80601f0160208091040260200160405190810160405280929190818152602001828054610c94906116ca565b8015610ce15780601f10610cb657610100808354040283529160200191610ce1565b820191906000526020600020905b815481529060010190602001808311610cc457829003601f168201915b505050505090806005018054610cf6906116ca565b80601f0160208091040260200160405190810160405280929190818152602001828054610d22906116ca565b8015610d6f5780601f10610d4457610100808354040283529160200191610d6f565b820191906000526020600020905b815481529060010190602001808311610d5257829003601f168201915b5050505050905086565b828054610d85906116ca565b90600052602060002090601f016020900481019282610da75760008555610dee565b82601f10610dc057805160ff1916838001178555610dee565b82800160010185558215610dee579182015b82811115610ded578251825591602001919060010190610dd2565b5b509050610dfb9190610dff565b5090565b5b80821115610e18576000816000905550600101610e00565b5090565b600081519050919050565b600082825260208201905092915050565b6000819050602082019050919050565b600073ffffffffffffffffffffffffffffffffffffffff82169050919050565b6000610e7382610e48565b9050919050565b610e8381610e68565b82525050565b600081519050919050565b600082825260208201905092915050565b60005b83811015610ec3578082015181840152602081019050610ea8565b83811115610ed2576000848401525b50505050565b6000601f19601f8301169050919050565b6000610ef482610e89565b610efe8185610e94565b9350610f0e818560208601610ea5565b610f1781610ed8565b840191505092915050565b600060c083016000830151610f3a6000860182610e7a565b5060208301518482036020860152610f528282610ee9565b91505060408301518482036040860152610f6c8282610ee9565b91505060608301518482036060860152610f868282610ee9565b91505060808301518482036080860152610fa08282610ee9565b91505060a083015184820360a0860152610fba8282610ee9565b9150508091505092915050565b6000610fd38383610f22565b905092915050565b6000602082019050919050565b6000610ff382610e1c565b610ffd8185610e27565b93508360208202850161100f85610e38565b8060005b8581101561104b578484038952815161102c8582610fc7565b945061103783610fdb565b925060208a01995050600181019050611013565b50829750879550505050505092915050565b600060208201905081810360008301526110778184610fe8565b905092915050565b600081519050919050565b600082825260208201905092915050565b6000819050602082019050919050565b6000819050919050565b6110be816110ab565b82525050565b600060c0830160008301516110dc6000860182610e7a565b5060208301516110ef6020860182610e7a565b50604083015161110260408601826110b5565b50606083015161111560608601826110b5565b506080830151848203608086015261112d8282610ee9565b91505060a083015184820360a08601526111478282610ee9565b9150508091505092915050565b600061116083836110c4565b905092915050565b6000602082019050919050565b60006111808261107f565b61118a818561108a565b93508360208202850161119c8561109b565b8060005b858110156111d857848403895281516111b98582611154565b94506111c483611168565b925060208a019950506001810190506111a0565b50829750879550505050505092915050565b600060208201905081810360008301526112048184611175565b905092915050565b611215816110ab565b82525050565b6000602082019050611230600083018461120c565b92915050565b6000604051905090565b600080fd5b600080fd5b600080fd5b600080fd5b7f4e487b7100000000000000000000000000000000000000000000000000000000600052604160045260246000fd5b61128c82610ed8565b810181811067ffffffffffffffff821117156112ab576112aa611254565b5b80604052505050565b60006112be611236565b90506112ca8282611283565b919050565b600067ffffffffffffffff8211156112ea576112e9611254565b5b6112f382610ed8565b9050602081019050919050565b82818337600083830152505050565b600061132261131d846112cf565b6112b4565b90508281526020810184848401111561133e5761133d61124f565b5b611349848285611300565b509392505050565b600082601f8301126113665761136561124a565b5b813561137684826020860161130f565b91505092915050565b600080600080600060a0868803121561139b5761139a611240565b5b600086013567ffffffffffffffff8111156113b9576113b8611245565b5b6113c588828901611351565b955050602086013567ffffffffffffffff8111156113e6576113e5611245565b5b6113f288828901611351565b945050604086013567ffffffffffffffff81111561141357611412611245565b5b61141f88828901611351565b935050606086013567ffffffffffffffff8111156114405761143f611245565b5b61144c88828901611351565b925050608086013567ffffffffffffffff81111561146d5761146c611245565b5b61147988828901611351565b9150509295509295909350565b61148f81610e68565b811461149a57600080fd5b50565b6000813590506114ac81611486565b92915050565b6114bb816110ab565b81146114c657600080fd5b50565b6000813590506114d8816114b2565b92915050565b600080600080600060a086880312156114fa576114f9611240565b5b60006115088882890161149d565b9550506020611519888289016114c9565b945050604061152a888289016114c9565b935050606086013567ffffffffffffffff81111561154b5761154a611245565b5b61155788828901611351565b925050608086013567ffffffffffffffff81111561157857611577611245565b5b61158488828901611351565b9150509295509295909350565b6000602082840312156115a7576115a6611240565b5b60006115b5848285016114c9565b91505092915050565b6115c781610e68565b82525050565b600082825260208201905092915050565b60006115e982610e89565b6115f381856115cd565b9350611603818560208601610ea5565b61160c81610ed8565b840191505092915050565b600060c08201905061162c60008301896115be565b818103602083015261163e81886115de565b9050818103604083015261165281876115de565b9050818103606083015261166681866115de565b9050818103608083015261167a81856115de565b905081810360a083015261168e81846115de565b9050979650505050505050565b7f4e487b7100000000000000000000000000000000000000000000000000000000600052602260045260246000fd5b600060028204905060018216806116e257607f821691505b602082108114156116f6576116f561169b565b5b50919050565b7f4e487b7100000000000000000000000000000000000000000000000000000000600052601160045260246000fd5b6000611736826110ab565b9150611741836110ab565b9250817fffffffffffffffffffffffffffffffffffffffffffffffffffffffffffffffff048311821515161561177a576117796116fc565b5b828202905092915050565b600060c08201905061179a60008301896115be565b6117a760208301886115be565b6117b4604083018761120c565b6117c1606083018661120c565b81810360808301526117d381856115de565b905081810360a08301526117e781846115de565b9050979650505050505050565b60006117ff826110ab565b915061180a836110ab565b9250827fffffffffffffffffffffffffffffffffffffffffffffffffffffffffffffffff0382111561183f5761183e6116fc565b5b82820190509291505056fea2646970667358221220669d5528746af3fe47e4eae1b0167cc8ad88a8817d54dac626e10306bb8ac69664736f6c63430008090033",
  "linkReferences": {},
  "deployedLinkReferences": {}
}