{
  "_format": "hh-sol-artifact-1",
  "contractName": "Transactions",
  "sourceName": "contracts/Transactions.sol",
  "abi": [
    {
      "anonymous": false,
      "inputs": [
        {
          "indexed": false,
          "internalType": "address",
          "name": "sender",
          "type": "address"
        },
        {
          "indexed": false,
          "internalType": "address",
          "name": "receiverAddress",
          "type": "address"
        },
        {
          "indexed": false,
          "internalType": "uint256",
          "name": "parsedAmount",
          "type": "uint256"
        }
      ],
      "name": "Transfer",
      "type": "event"
    },
    {
      "inputs": [
        {
          "internalType": "string",
          "name": "powerSource",
          "type": "string"
        },
        {
          "internalType": "string",
          "name": "amountOfPower",
          "type": "string"
        },
        {
          "internalType": "string",
          "name": "pricePerKW",
          "type": "string"
        },
        {
          "internalType": "string",
          "name": "duration",
          "type": "string"
        },
        {
          "internalType": "string",
          "name": "timeToStart",
          "type": "string"
        }
      ],
      "name": "addToAvailableOptions",
      "outputs": [],
      "stateMutability": "nonpayable",
      "type": "function"
    },
    {
      "inputs": [
        {
          "internalType": "address",
          "name": "receiverAddress",
          "type": "address"
        },
        {
          "internalType": "uint256",
          "name": "amountOfPower",
          "type": "uint256"
        },
        {
          "internalType": "uint256",
          "name": "pricePerKW",
          "type": "uint256"
        },
        {
          "internalType": "uint256",
          "name": "parsedAmount",
          "type": "uint256"
        }
      ],
      "name": "addToBlockchain",
      "outputs": [],
      "stateMutability": "nonpayable",
      "type": "function"
    },
    {
      "inputs": [
        {
          "internalType": "uint256",
          "name": "",
          "type": "uint256"
        }
      ],
      "name": "availableOptions",
      "outputs": [
        {
          "internalType": "uint256",
          "name": "id",
          "type": "uint256"
        },
        {
          "internalType": "address",
          "name": "sender",
          "type": "address"
        },
        {
          "internalType": "string",
          "name": "powerSource",
          "type": "string"
        },
        {
          "internalType": "string",
          "name": "amountOfPower",
          "type": "string"
        },
        {
          "internalType": "string",
          "name": "pricePerKW",
          "type": "string"
        },
        {
          "internalType": "string",
          "name": "duration",
          "type": "string"
        },
        {
          "internalType": "string",
          "name": "timeToStart",
          "type": "string"
        }
      ],
      "stateMutability": "view",
      "type": "function"
    },
    {
      "inputs": [],
      "name": "getAllTransactions",
      "outputs": [
        {
          "components": [
            {
              "internalType": "address",
              "name": "sender",
              "type": "address"
            },
            {
              "internalType": "address",
              "name": "receiver",
              "type": "address"
            },
            {
              "internalType": "uint256",
              "name": "amountOfPower",
              "type": "uint256"
            },
            {
              "internalType": "uint256",
              "name": "pricePerKW",
              "type": "uint256"
            },
            {
              "internalType": "uint256",
              "name": "parsedAmount",
              "type": "uint256"
            }
          ],
          "internalType": "struct Transactions.TransferStruct[]",
          "name": "",
          "type": "tuple[]"
        }
      ],
      "stateMutability": "view",
      "type": "function"
    },
    {
      "inputs": [],
      "name": "getAvailableOptions",
      "outputs": [
        {
          "components": [
            {
              "internalType": "uint256",
              "name": "id",
              "type": "uint256"
            },
            {
              "internalType": "address",
              "name": "sender",
              "type": "address"
            },
            {
              "internalType": "string",
              "name": "powerSource",
              "type": "string"
            },
            {
              "internalType": "string",
              "name": "amountOfPower",
              "type": "string"
            },
            {
              "internalType": "string",
              "name": "pricePerKW",
              "type": "string"
            },
            {
              "internalType": "string",
              "name": "duration",
              "type": "string"
            },
            {
              "internalType": "string",
              "name": "timeToStart",
              "type": "string"
            }
          ],
          "internalType": "struct Transactions.AvailableOptionStruct[]",
          "name": "",
          "type": "tuple[]"
        }
      ],
      "stateMutability": "view",
      "type": "function"
    },
    {
      "inputs": [],
      "name": "getId",
      "outputs": [
        {
          "internalType": "uint256",
          "name": "",
          "type": "uint256"
        }
      ],
      "stateMutability": "nonpayable",
      "type": "function"
    },
    {
      "inputs": [],
      "name": "getTransactionCount",
      "outputs": [
        {
          "internalType": "uint256",
          "name": "",
          "type": "uint256"
        }
      ],
      "stateMutability": "view",
      "type": "function"
    },
    {
      "inputs": [],
      "name": "id",
      "outputs": [
        {
          "internalType": "uint256",
          "name": "",
          "type": "uint256"
        }
      ],
      "stateMutability": "view",
      "type": "function"
    }
  ],
  "bytecode": "0x608060405234801561001057600080fd5b5061169d806100206000396000f3fe608060405234801561001057600080fd5b50600436106100885760003560e01c80635d1ca6311161005b5780635d1ca63114610103578063644fc12d14610121578063af640d0f1461013d578063c36fff2d1461015b57610088565b806312735e191461008d57806327506f53146100ab5780632d7bcaa6146100c95780632e7700f0146100e5575b600080fd5b610095610191565b6040516100a29190610f9e565b60405180910390f35b6100b361052a565b6040516100c091906110d7565b60405180910390f35b6100e360048036038101906100de9190611165565b610653565b005b6100ed6107da565b6040516100fa91906111db565b60405180910390f35b61010b6107e4565b60405161011891906111db565b60405180910390f35b61013b6004803603810190610136919061132b565b610803565b005b61014561096e565b60405161015291906111db565b60405180910390f35b61017560048036038101906101709190611432565b610974565b60405161018897969594939291906114b8565b60405180910390f35b60606002805480602002602001604051908101604052809291908181526020016000905b8282101561052157838290600052602060002090600702016040518060e0016040529081600082015481526020016001820160009054906101000a900473ffffffffffffffffffffffffffffffffffffffff1673ffffffffffffffffffffffffffffffffffffffff1673ffffffffffffffffffffffffffffffffffffffff16815260200160028201805461024890611579565b80601f016020809104026020016040519081016040528092919081815260200182805461027490611579565b80156102c15780601f10610296576101008083540402835291602001916102c1565b820191906000526020600020905b8154815290600101906020018083116102a457829003601f168201915b505050505081526020016003820180546102da90611579565b80601f016020809104026020016040519081016040528092919081815260200182805461030690611579565b80156103535780601f1061032857610100808354040283529160200191610353565b820191906000526020600020905b81548152906001019060200180831161033657829003601f168201915b5050505050815260200160048201805461036c90611579565b80601f016020809104026020016040519081016040528092919081815260200182805461039890611579565b80156103e55780601f106103ba576101008083540402835291602001916103e5565b820191906000526020600020905b8154815290600101906020018083116103c857829003601f168201915b505050505081526020016005820180546103fe90611579565b80601f016020809104026020016040519081016040528092919081815260200182805461042a90611579565b80156104775780601f1061044c57610100808354040283529160200191610477565b820191906000526020600020905b81548152906001019060200180831161045a57829003601f168201915b5050505050815260200160068201805461049090611579565b80601f01602080910402602001604051908101604052809291908181526020018280546104bc90611579565b80156105095780601f106104de57610100808354040283529160200191610509565b820191906000526020600020905b8154815290600101906020018083116104ec57829003601f168201915b505050505081525050815260200190600101906101b5565b50505050905090565b60606004805480602002602001604051908101604052809291908181526020016000905b8282101561064a57838290600052602060002090600502016040518060a00160405290816000820160009054906101000a900473ffffffffffffffffffffffffffffffffffffffff1673ffffffffffffffffffffffffffffffffffffffff1673ffffffffffffffffffffffffffffffffffffffff1681526020016001820160009054906101000a900473ffffffffffffffffffffffffffffffffffffffff1673ffffffffffffffffffffffffffffffffffffffff1673ffffffffffffffffffffffffffffffffffffffff16815260200160028201548152602001600382015481526020016004820154815250508152602001906001019061054e565b50505050905090565b60016003600082825461066691906115da565b9250508190555060046040518060a001604052803373ffffffffffffffffffffffffffffffffffffffff1681526020018673ffffffffffffffffffffffffffffffffffffffff16815260200185815260200184815260200183815250908060018154018082558091505060019003906000526020600020906005020160009091909190915060008201518160000160006101000a81548173ffffffffffffffffffffffffffffffffffffffff021916908373ffffffffffffffffffffffffffffffffffffffff16021790555060208201518160010160006101000a81548173ffffffffffffffffffffffffffffffffffffffff021916908373ffffffffffffffffffffffffffffffffffffffff16021790555060408201518160020155606082015181600301556080820151816004015550507fddf252ad1be2c89b69c2b068fc378daa952ba7f163c4a11628f55a4df523b3ef3385836040516107cc93929190611630565b60405180910390a150505050565b6000600354905090565b600060016000808282546107f891906115da565b925050819055905090565b60026040518060e001604052806108186107e4565b600081905581526020013373ffffffffffffffffffffffffffffffffffffffff1681526020018781526020018681526020018581526020018481526020018381525090806001815401808255809150506001900390600052602060002090600702016000909190919091506000820151816000015560208201518160010160006101000a81548173ffffffffffffffffffffffffffffffffffffffff021916908373ffffffffffffffffffffffffffffffffffffffff16021790555060408201518160020190805190602001906108f0929190610c8e565b50606082015181600301908051906020019061090d929190610c8e565b50608082015181600401908051906020019061092a929190610c8e565b5060a0820151816005019080519060200190610947929190610c8e565b5060c0820151816006019080519060200190610964929190610c8e565b5050505050505050565b60005481565b6002818154811061098457600080fd5b90600052602060002090600702016000915090508060000154908060010160009054906101000a900473ffffffffffffffffffffffffffffffffffffffff16908060020180546109d390611579565b80601f01602080910402602001604051908101604052809291908181526020018280546109ff90611579565b8015610a4c5780601f10610a2157610100808354040283529160200191610a4c565b820191906000526020600020905b815481529060010190602001808311610a2f57829003601f168201915b505050505090806003018054610a6190611579565b80601f0160208091040260200160405190810160405280929190818152602001828054610a8d90611579565b8015610ada5780601f10610aaf57610100808354040283529160200191610ada565b820191906000526020600020905b815481529060010190602001808311610abd57829003601f168201915b505050505090806004018054610aef90611579565b80601f0160208091040260200160405190810160405280929190818152602001828054610b1b90611579565b8015610b685780601f10610b3d57610100808354040283529160200191610b68565b820191906000526020600020905b815481529060010190602001808311610b4b57829003601f168201915b505050505090806005018054610b7d90611579565b80601f0160208091040260200160405190810160405280929190818152602001828054610ba990611579565b8015610bf65780601f10610bcb57610100808354040283529160200191610bf6565b820191906000526020600020905b815481529060010190602001808311610bd957829003601f168201915b505050505090806006018054610c0b90611579565b80601f0160208091040260200160405190810160405280929190818152602001828054610c3790611579565b8015610c845780601f10610c5957610100808354040283529160200191610c84565b820191906000526020600020905b815481529060010190602001808311610c6757829003601f168201915b5050505050905087565b828054610c9a90611579565b90600052602060002090601f016020900481019282610cbc5760008555610d03565b82601f10610cd557805160ff1916838001178555610d03565b82800160010185558215610d03579182015b82811115610d02578251825591602001919060010190610ce7565b5b509050610d109190610d14565b5090565b5b80821115610d2d576000816000905550600101610d15565b5090565b600081519050919050565b600082825260208201905092915050565b6000819050602082019050919050565b6000819050919050565b610d7081610d5d565b82525050565b600073ffffffffffffffffffffffffffffffffffffffff82169050919050565b6000610da182610d76565b9050919050565b610db181610d96565b82525050565b600081519050919050565b600082825260208201905092915050565b60005b83811015610df1578082015181840152602081019050610dd6565b83811115610e00576000848401525b50505050565b6000601f19601f8301169050919050565b6000610e2282610db7565b610e2c8185610dc2565b9350610e3c818560208601610dd3565b610e4581610e06565b840191505092915050565b600060e083016000830151610e686000860182610d67565b506020830151610e7b6020860182610da8565b5060408301518482036040860152610e938282610e17565b91505060608301518482036060860152610ead8282610e17565b91505060808301518482036080860152610ec78282610e17565b91505060a083015184820360a0860152610ee18282610e17565b91505060c083015184820360c0860152610efb8282610e17565b9150508091505092915050565b6000610f148383610e50565b905092915050565b6000602082019050919050565b6000610f3482610d31565b610f3e8185610d3c565b935083602082028501610f5085610d4d565b8060005b85811015610f8c5784840389528151610f6d8582610f08565b9450610f7883610f1c565b925060208a01995050600181019050610f54565b50829750879550505050505092915050565b60006020820190508181036000830152610fb88184610f29565b905092915050565b600081519050919050565b600082825260208201905092915050565b6000819050602082019050919050565b60a0820160008201516110026000850182610da8565b5060208201516110156020850182610da8565b5060408201516110286040850182610d67565b50606082015161103b6060850182610d67565b50608082015161104e6080850182610d67565b50505050565b60006110608383610fec565b60a08301905092915050565b6000602082019050919050565b600061108482610fc0565b61108e8185610fcb565b935061109983610fdc565b8060005b838110156110ca5781516110b18882611054565b97506110bc8361106c565b92505060018101905061109d565b5085935050505092915050565b600060208201905081810360008301526110f18184611079565b905092915050565b6000604051905090565b600080fd5b600080fd5b61111681610d96565b811461112157600080fd5b50565b6000813590506111338161110d565b92915050565b61114281610d5d565b811461114d57600080fd5b50565b60008135905061115f81611139565b92915050565b6000806000806080858703121561117f5761117e611103565b5b600061118d87828801611124565b945050602061119e87828801611150565b93505060406111af87828801611150565b92505060606111c087828801611150565b91505092959194509250565b6111d581610d5d565b82525050565b60006020820190506111f060008301846111cc565b92915050565b600080fd5b600080fd5b7f4e487b7100000000000000000000000000000000000000000000000000000000600052604160045260246000fd5b61123882610e06565b810181811067ffffffffffffffff8211171561125757611256611200565b5b80604052505050565b600061126a6110f9565b9050611276828261122f565b919050565b600067ffffffffffffffff82111561129657611295611200565b5b61129f82610e06565b9050602081019050919050565b82818337600083830152505050565b60006112ce6112c98461127b565b611260565b9050828152602081018484840111156112ea576112e96111fb565b5b6112f58482856112ac565b509392505050565b600082601f830112611312576113116111f6565b5b81356113228482602086016112bb565b91505092915050565b600080600080600060a0868803121561134757611346611103565b5b600086013567ffffffffffffffff81111561136557611364611108565b5b611371888289016112fd565b955050602086013567ffffffffffffffff81111561139257611391611108565b5b61139e888289016112fd565b945050604086013567ffffffffffffffff8111156113bf576113be611108565b5b6113cb888289016112fd565b935050606086013567ffffffffffffffff8111156113ec576113eb611108565b5b6113f8888289016112fd565b925050608086013567ffffffffffffffff81111561141957611418611108565b5b611425888289016112fd565b9150509295509295909350565b60006020828403121561144857611447611103565b5b600061145684828501611150565b91505092915050565b61146881610d96565b82525050565b600082825260208201905092915050565b600061148a82610db7565b611494818561146e565b93506114a4818560208601610dd3565b6114ad81610e06565b840191505092915050565b600060e0820190506114cd600083018a6111cc565b6114da602083018961145f565b81810360408301526114ec818861147f565b90508181036060830152611500818761147f565b90508181036080830152611514818661147f565b905081810360a0830152611528818561147f565b905081810360c083015261153c818461147f565b905098975050505050505050565b7f4e487b7100000000000000000000000000000000000000000000000000000000600052602260045260246000fd5b6000600282049050600182168061159157607f821691505b602082108114156115a5576115a461154a565b5b50919050565b7f4e487b7100000000000000000000000000000000000000000000000000000000600052601160045260246000fd5b60006115e582610d5d565b91506115f083610d5d565b9250827fffffffffffffffffffffffffffffffffffffffffffffffffffffffffffffffff03821115611625576116246115ab565b5b828201905092915050565b6000606082019050611645600083018661145f565b611652602083018561145f565b61165f60408301846111cc565b94935050505056fea26469706673582212205ed7be0496ddcaf4981fef8297b708ea826488f5f45f6e9db328a47a1c45f0ad64736f6c63430008090033",
  "linkReferences": {},
  "deployedLinkReferences": {}
}